:02000000CE2D03
:1000080070082000A9007108A8007208A7007408E9
:10001800A6007508A5007808A4007908A3007C0844
:10002800A2007D08A1008031911E9628230019089E
:100038002000E60066080A3A031934283A30860098
:1000480000308700340886070318870A660881008D
:10005800B40A3408093C031833280930B400952839
:100068003A08743A031D3B280230B70094283A082E
:10007800773A031D92283A30EB000030EC00AF25A8
:1000880070082100A4007108A5002A30A0000030E3
:10009800A1003B30A2000030A300902301302000D3
:1000A8003402F000F1010030F13B2A30700786007D
:1000B8000030713D870081012A30EB000030EC00F0
:1000C800552470082000B8007108B900DA239A3066
:1000D800F4009930F5001930F6007D30F700182546
:1000E8007008E7007108E8007208E9007308EA0080
:1000F8004408F0004508F10003256708F400680883
:10010800F5006908F6006A08F700F122F72370087D
:10011800C4007108C5000130B70094280330B70047
:10012800B4019112111CBA280B309700DC309600EC
:100138003908003C031DA2283808003C0318A828E9
:100148000130B8020030B93BB50A0319B60A3608BF
:10015800043C031DB1283508B03C0318B928023007
:10016800C4020030C53BB501B60111102908F000E2
:100178002808F1002708F2002608F4002508F500F1
:100188002408F8002308F9002208FC002108FD00D3
:0201980009005C
:0E019A00F201F101F001F801F301003008005C
:1001A800FB14FB1FDE28FF30F300F200F100F00023
:0801B800FA0DF20CFF30080003
:0801C000FA1FF21300300800E1
:1001C8007B15FB1FEE280130F300F201F101F0016D
:0801D800FA0DF20CFF300800E3
:1001E0002000F801F9011030FC00710DF80DF90D37
:1001F0007408F8027508031C750FF9020318072923
:100200007408F80775080318750FF9070310F00D47
:08021000F10DFC0BF5280800BC
:1002180023009E18112900000C29200065082300DE
:040228009A00080030
:10022C000C302000D2000130D3006530D4000030F7
:10023C00D500FF30CE00FF30CF000030D0000030B2
:10024C00D100FF30C600FF30C7000030C8000030BE
:10025C00C900FF30CA00FF30CB000030CC000030AA
:10026C00CD0023009E1690309D0021008E160E1698
:10027C002000911E452923001908F0003E29080092
:10028C002000E4010A30F4000030F5005C08F000B6
:10029C005D08F100F0207808F0007908F100700892
:1002AC00E3000A30F4000030F5005C08F0005D0853
:1002BC00F100F0207008DC007108DD000A30F40059
:1002CC000030F500F0207808F0007908F100700893
:1002DC00E2000A30F4000030F5005C08F0005D0824
:1002EC00F100F0207008DC007108DD000A30F40029
:1002FC000030F500F0207808F0007908F100700863
:10030C00E1000A30F4000030F5005C08F0005D08F4
:10031C00F100F0207008DC007108DD000A30F400F8
:10032C000030F500F0207808F0007908F100700832
:10033C00E0000A30F4000030F5005C08F0005D08C5
:10034C00F100F0207008DC007108DD000A30F400C8
:10035C000030F500F0207808F0007908F100700802
:10036C00DF000A30F4000030F5005C08F0005D0896
:10037C00F100F0207008DC007108DD000A30F40098
:10038C000030F500F0207808F0007908F1007008D2
:10039C00DE007008003C0318DA295E08303EE500E8
:1003AC000C2101302000E4005F08003C031CE22912
:1003BC006408031DE229E9295F08303EE5000C21A1
:1003CC0001302000E4006008003C031CF1296408A3
:1003DC00031DF129F8296008303EE5000C2101309D
:1003EC002000E4006108003C031C002A6408031D83
:1003FC00002A072A6108303EE5000C21013020005C
:10040C00E4006208003C031C0F2A6408031D0F2A39
:10041C00162A6208303EE5000C2101302000E40071
:10042C006308303EE5000C210D302000E5000C2166
:0A043C000A302000E5000C21080042
:100446002000FB01FA01F9018030F800F10CF00CF4
:10045600031C362A7408F90775080318750FFA077E
:100466000318FB0A0310F01F3E2A7408FA077508E2
:100476000318750FFB07FB0CFA0CF90CF80C031CA0
:10048600292A7B08F3007A08F2007908F100780837
:04049600F00008006A
:10049A007C18832AFC18542A7C19A22A4D2AA00106
:1004AA007208031D742A7108F2007008F1007808B6
:1004BA00F000F801A0157208031D742A7108F200F1
:1004CA007008F100F001A01120167208031D742AA9
:1004DA007108F200F101A01572080319962A200882
:1004EA00F302031D031C9A2A0310F21B832AF80D38
:1004FA00F00DF10DF20DF30B7A2A9A2A7B1B701C70
:10050A009E2AF81F9E2AF00A0319F10A0319F20A11
:10051A00031D9E2AF20CF10CF00CF30A0319A22A0D
:10052A009E2A0130FC00CD20A52A0230FC00E420DE
:10053A00A52A0430FC00E020A52A0830FC00D420BB
:04054A0000000800A5
:10054E0020006F08393C031CB32A30306F02031CA5
:0C055E00B32A0130F000B42AF0010800BC
:10056A00A0017208031DCA2A7108F2007008F1007E
:10057A00F001A0157208031DCA2A7108F200F101E0
:10058A00A011201672080319D82A2008F302031DA5
:10059A00031CDC2A0310F21BE02AF00DF10DF20D08
:1005AA00F30BD02ADC2A0130FC00CD20E32A0230EA
:0E05BA00FC00E420E32A0430FC00E0200800EE
:1005C8007B14FB1FEF2AF201FA1FFF30F200F10043
:0A05D800F000FA0DF20CFF300800ED
:1005E200200072087606A000F801F901730877026C
:1005F200031C132B7708FD007308F7007D08F30036
:100602007608FD007208F6007D08F2007508FD000C
:100612007108F5007D08F1007408FD007008F4000F
:100622007D08F000770803198C2B7208FA00F21784
:10063200F61777087302F7000319462B0830770282
:10064200031C3C2BF7007408F9007508F4007608C7
:10065200F500F60108307702031C3C2BF700740802
:10066200F9007508F400F50108307702031C3C2BF1
:100672007A08F2008C2B77080319462B0310F60C2C
:10068200F50CF40CF90CF70B3F2BA01F532BF909B7
:10069200F409F509F609F90A0319F40A0319F50A26
:1006A2000319F60A7908F80774080318740FF0079B
:1006B20075080318750FF10776080318760FF2070D
:1006C200A01B6C2B031C7C2BF20CF10CF00CF80C15
:1006D200F30F7C2B882B0318802BF809F009F10902
:1006E200F209F80A0319F00A0319F10A0319F20AC6
:1006F2008030FA06842B0130FC004D228E2B023012
:10070200FC004D228E2B0430FC00B5228E2B0830CB
:0E071200FC00D4208E2B0030FC0000000800FC
:1007200021002008F4002108F500240825040319FD
:10073000C02B0130A4020030A53B7408F2007508FC
:10074000F300F40A0319F50A2208F0002308F10067
:10075000A20A0319A30A70088400710885007208B0
:1007600086007308870000088100720884007308FF
:1007700085000008F0007008031DBF2BC02B952BCF
:100780002408F0002508F1000130A4020030A53B48
:10079000700871040319D52B74088600750887004A
:1007A0008101F40A0319F50AC02B2008F000210882
:0407B000F10008004C
:1007B40020007008F8007108F000F101F201F30163
:1007C400FB01FC019630F300FA01F01FEF2BF8094E
:1007D400F009F80A0319F00AFA177008F10078080A
:0A07E400F000F801F201B522080050
:1007EE002000FB01FC01FA0173080319352CF217E6
:1007FE008E30F302F31B062C0319062C382CF3094A
:10080E00F30A08307302031C1B2CF300F10D72085F
:10081E00F100F20108307302031C1B2CF10DF101E3
:10082E007308031D0310232C73080319232C0310C4
:10083E00F20CF10CF30B1E2C7B1B711C2D2C031CCC
:10084E002D2CF10A0319F20AF21B442CFA1F472C25
:10085E00F209F109F10A0319F20A472CF201F1012A
:10086E00472C7B14FB1F4A2CF201FA1F4A2CFF3037
:10087E00F200F100FA0DF20C4A2C0130FC004C2C67
:10088E000030FC004C2CFF30FC00FC080319502CEF
:0C089E00E4227108F0007208F10008006C
:1008AA0020006B0884006C0885000008ED00EE014A
:1008BA000030EE0000306E06031D652C20306D06F8
:1008CA000319702C00306E06031D6D2C09306D065D
:1008DA000319702C742CEB0A0319EC0A552C21000D
:1008EA00A001A101A201A301003020006E06031D90
:1008FA00802C2D306D06031D8B2C2100A20A0319B2
:10090A00A30A2000EB0A0319EC0A962C00306E06A3
:10091A00031D912C2B306D06031D962CEB0A03192F
:10092A00EC0A6B0884006C0885000008ED00EE01F3
:10093A000030EE006D08EF00A72270080319C12CE1
:10094A0021002008F0002108F1000A30F4000030EC
:10095A00F500232230306D02F20000306E3BF300C6
:10096A00720870072100A0007308713DA1002000E1
:10097A00EB0A0319EC0A962C210022082304031916
:10098A00CF2C2008003CF0002108031C013EF10195
:0E099A00F102D32C2008F0002108F100080023
:1009A80021008C0128308E0023008E018C019F15B8
:1009B80067309B0000309C001E1516210330FC0098
:1009C8009730FD00FD0BE62CFC0BE62C0000000028
:1009D80023009D179E161E12C0308B002100911611
:1009E80023001D16313020009800990121001114B0
:0E09F8001D309D0080309E00193097000800D1
:100A060020007008F8007108F000F101F201F3010E
:100A1600FB01FC019630F300FA017008F10078083A
:0A0A2600F000F801F201B52208000B
:100A30002000FB017308031D770803196E2D72084F
:100A40007606FA007708F3077E30031C2B2DF3029D
:100A50000318712D2E2DF302031C742D7208F8005B
:100A60007108FC007008FD00F817F6170310F2017A
:100A7000F101F0011830A0007D1C482D7408F0072A
:100A800075080318750FF10776080318760FF2073B
:100A9000F20CF10CF00CF80CFC0CFD0C0310A00B8C
:100AA0003C2DF21B582DF80DF00DF10DF20DF30356
:100AB0007B1B701C6A2DF81F6A2DF00A0319F10ABE
:100AC0000319F20A031D6A2DF20CF10CF00CF30A63
:100AD0000319712DFA1FF2130030762D0130CD204D
:100AE000762D0230D420762D0430E420000008005A
:100AF00020003708023A031D842D5A08DC005B08E9
:100B0000DD0046212000B7013708013A031D8F2D73
:100B10003808DC003908DD0046212000B70137081D
:100B2000033A031D9A2D3808DC003908DD00462100
:100B30002000B7013908003C031DA02D3808003CF7
:0C0B40000318A42D0E15A52D0E110800A1
:100B4C0012001E00F003031DA62DF103031DA62D9C
:020B5C0008008F
:100B5E0020006B08F2006C08F3007208F0007308B6
:100B6E00F100F20A0319F30A700884007108850077
:100B7E0000080319C32DB42D6B087202F0006C0827
:0E0B8E00733BF1000130F0020030F13B080033
:100B9C0022262000D601D701D801D901D4248230D5
:100BAC00FC00DD30FD00FD0BD92DFC0BD92D000018
:100BBC00000020004408D6004508D700D801D90110
:100BCC001708C83C0318F12D0130D6070030D73D6B
:100BDC00D83DD93DFB2D5A3017020318FB2D01309F
:100BEC00D6020030D73BD83BD93B5608DA00570821
:0A0BFC00DB0078256400D52D022EE1
:100C440006308400863085001C30F0000130F1004D
:0C0C54002A30860000308700A62508002A
:100C0C000034003400340034003400340034003438
:040C1C00003400346C
:020C200000349E
:040C22000034003466
:020C2600003498
:040C28000034003460
:100C2C000034003400340034003400340034003418
:040C3C00003400344C
:040C400058340234EE
:020000040001F9
:04000E00E938F31EBC
:00000001FF
