:020000005A2D77
:1000080070082000AA007108A9007208A8007308E7
:10001800A7007408A6007508A5007808A400790848
:10002800A3007A08A2007B08A1008031911E7328E2
:10003800230019082000EA006A080A3A031936283A
:100048002C308600003087002B0886070318870AA3
:100058006A088100AB0A2B08093C031835280930C7
:10006800AB0072282C08743A031D3D280230B800F2
:1000780071282C08773A031D6F282C30EB000030CC
:10008800EC00722470082100A4007108A500393022
:10009800A0000030A1002D30A2000030A300912460
:1000A800013020002B02F000F1010030F13B393023
:1000B800700786000030713D870081013930EB0000
:1000C8000030EC00DB2470082000B6007108B7008F
:1000D8000130B80071280330B800AB019112111C2F
:1000E80086280B309700DC3096003708003C031D4B
:1000F8007F283608003C031885280130B6020030F6
:10010800B73B11102A08F0002908F1002808F2006E
:100118002708F3002608F4002508F5002408F8004D
:0E0128002308F9002208FA002108FB00090054
:0E013600F201F101F001F801F30100300800C0
:100144007B15FB1FAC280130F300F201F101F00133
:08015400FA0DF20CFF30080067
:08015C00FA1FF2130030080045
:10016400FB14FB1FBC28FF30F300F200F100F00089
:08017400FA0DF20CFF30080047
:10017C007B14FB1FC928F201FA1FFF30F200F100BB
:0A018C00F000FA0DF20CFF3008003D
:06019600FB15FF3008001C
:10019C007C180429FC18D5287C192329CE28A00109
:1001AC007208031DF5287108F2007008F100780838
:1001BC00F000F801A0157208031DF5287108F20073
:1001CC007008F100F001A01120167208031DF5282B
:1001DC007108F200F101A015720803191729200803
:1001EC00F302031D031C1B290310F21B0429F80D39
:1001FC00F00DF10DF20DF30BFB281B297B1B701C72
:10020C001F29F81F1F29F00A0319F10A0319F20A12
:10021C00031D1F29F20CF10CF00CF30A031923290E
:10022C001F290130FC009B2026290230FC00A22053
:10023C0026290430FC00AE2026290830FC00B22010
:04024C0000000800A6
:100250002000F801F9011030FC00710DF80DF90DC6
:100260007408F8027508031C750FF90203183F297A
:100270007408F80775080318750FF9070310F00DD7
:08028000F10DFC0B2D29080013
:1002880023009E18492900004429200069082300FA
:040298009A000800C0
:10029C007408003A031D67297508003A031D672985
:1002AC007608003A031D67297708003A031D672971
:1002BC00FF30F000FF30F1007F30F200FF30F30030
:1002CC00012A200077080319F52973080319F82966
:1002DC00720876068039FA00F217F617A001720838
:1002EC00F8007108FC007008FD007408FD02750828
:1002FC00031C750FFC027608031C760FF802F8013C
:10030C00FC01FD01031C91290310F20CF10CF00C03
:10031C00F80C0130A0007708F302031C9B297E30F7
:10032C002007F3070318FB29A0297E302007F307C9
:10033C00031CFE291830FA07FD0DFC0DF80DF00D0D
:10034C00F10DF20DA00D7408F0027508031C750F69
:10035C00F1027608031C760FF202760DA004201C25
:10036C00B9297D14C4297408F00775080318750F92
:10037C00F10776080318760AF2077D10FA031F308E
:10038C007A05031DA2297B1B7D1CEB290310F00DA4
:10039C00F10DF20DA00D7408F0027508031C750F19
:1003AC00F1027608031C760FF202760D2004013957
:1003BC00FD070318FC0A0319F80A031DEB29F80CB6
:1003CC00FC0CFD0CF30A0319FB29FA1FF81378082F
:1003DC00F2007C08F1007D08F0000030002A0130AA
:1003EC00CB20002A02309B20002A0430B220002AA5
:0803FC000830A22000000800F7
:100404002000E8010A30F4000030F5006008F00034
:100414006108F10028217808F0007908F1007008DB
:10042400E7000A30F4000030F5006008F0006108CD
:10043400F10028217008E0007108E1000A30F4009E
:100444000030F50028217808F0007908F1007008E0
:10045400E6000A30F4000030F5006008F00061089E
:10046400F10028217008E0007108E1000A30F4006E
:100474000030F50028217808F0007908F1007008B0
:10048400E5000A30F4000030F5006008F00061086F
:10049400F10028217008E0007108E1000A30F4003E
:1004A4000030F50028217808F0007908F100700880
:1004B400E4000A30F4000030F5006008F000610840
:1004C400F10028217008E0007108E1000A30F4000E
:1004D4000030F50028217808F0007908F100700850
:1004E400E3000A30F4000030F5006008F000610811
:1004F400F10028217008E0007108E1000A30F400DE
:100504000030F50028217808F0007908F10070081F
:10051400E2007008003C0318962A6208303EE900A5
:10052400442101302000E8006308003C031C9E2A9B
:100534006808031D9E2AA52A6308303EE900442169
:1005440001302000E8006408003C031CAD2A680860
:10055400031DAD2AB42A6408303EE9004421013069
:100564002000E8006508003C031CBC2A6808031D41
:10057400BC2AC32A6508303EE9004421013020002A
:10058400E8006608003C031CCB2A6808031DCB2A3C
:10059400D22A6608303EE900442101302000E800F8
:1005A4006708303EE90044210D302000E900442171
:0A05B4000A302000E900442108008D
:1005BE002000FB01730803191B2B7208FA00F217B7
:1005CE008E30F302F31F1E2BF309F30A0830730269
:1005DE00031C012BF300F10D7208F100F20108303B
:1005EE007302031C012BF300F10DF1017308031DBF
:1005FE000310092B73080319092B0310F20CF10CCD
:10060E00F30B042B7B1B711C132B031C132BF10AF6
:10061E000319F20AF21B2A2BFA1F2D2BF209F109EC
:10062E00F10A0319F20A2D2BF201F1012D2B7B1485
:10063E00FB1F302BF201FA1F302BFF30F200F100BE
:10064E00FA0DF20C302B0130FC00322B0030FC0086
:10065E00322BFF30FC00FC080319362BBE2071082C
:08066E00F0007208F100080021
:1006760044302000CF000130D0006930D100003076
:10068600D200FF30CB00FF30CC000030CD00003070
:10069600CE00FF30C700FF30C8000030C900003070
:1006A600CA00FF30C300FF30C4000030C500003070
:1006B600C60023009E1690309D0021008E160E1651
:1006C6002000911E6A2B23001908F000632B0800F6
:1006D60020007008F8007108F0007208F100730835
:1006E600F200F301FB01FC019E30F300FA01023037
:0606F600FC00CE2008000C
:1006FC002000FB01FA01F9018030F800F10CF00C3C
:10070C00031C912B7408F90775080318750FFA0769
:10071C000318FB0A0310F01F992B7408FA077508CD
:10072C000318750FFB07FB0CFA0CF90CF80C031CE7
:10073C00842B7B08F3007A08F2007908F100780822
:04074C00F0000800B1
:1007500020006F08393C031CB42B30306F02031C9F
:0C076000B42B0130F000B52BF0010800B4
:10076C0020003808023A031DC22B5708E000580835
:10077C00E10002222000B8013808013A031DCD2BFC
:10078C003608E0003708E10002222000B8013808E2
:10079C00033A031DD82B3608E0003708E10002228B
:1007AC002000B8013708003C031DDE2B3608003C46
:0C07BC000318E22B0E15E32B0E110800B1
:1007C80021008C0128308E0023008E018C019F159A
:1007D80067309B0000309C001E153B230330FC0053
:1007E8009730FD00FD0BF62BFC0BF62B00000000EC
:1007F80023009D179E161E12C0308B0021009116F3
:1008080023001D1631302000980099012100111491
:0E0818001D309D0080309E00193097000800B2
:1008260012001E00F003031D132CF103031D132CED
:020836000800B8
:100838002000D701D801D901DA01DB01DC01DD0193
:10084800DE01DF01DF015F08633C031C512C21003E
:100858009D149D1C302C2D2C1C082000D700D8017D
:1008680021001B082000D900DA015708F100F00127
:100878005908F0045A08F1047008DB077108DC3DD8
:100888000030DD3DDE3D0230FC004B30FD00FD0B4D
:100898004B2CFC0B4B2CDF0A272C5B08F0005C0868
:1008A800F1005D08F2005E08F3006B230030F400ED
:1008B8000030F5004830F6008530F7004E21DF2281
:1008C8007008DB007108DC000030DC1BFF30DD0045
:0C08D800DE005B08F0005C08F100080086
:1008E40020006B08F2006C08F3007208F000730833
:1008F400F100F20A0319F30A7008840071088500F4
:1009040000080319862C772C6B087202F0006C081F
:0E091400733BF1000130F0020030F13B0800AF
:1009220021002008F4002108F500240825040319F9
:10093200C12C0130A4020030A53B7408F2007508F6
:10094200F300F40A0319F50A2208F0002308F10063
:10095200A20A0319A30A70088400710885007208AC
:1009620086007308870000088100720884007308FB
:1009720085000008F0007008031DC02CC12C962CC5
:100982002408F0002508F1000130A4020030A53B44
:10099200700871040319D62C740886007508870044
:1009A2008101F40A0319F50AC12C2008F00021087C
:0409B200F100080048
:1009B60020006B0884006C0885000008ED00EE013D
:1009C6000030EE0000306E06031DEB2C20306D0665
:1009D6000319F62C00306E06031DF32C09306D0644
:1009E6000319F62CFA2CEB0A0319EC0ADB2C21006E
:1009F600A001A101A201A301003020006E06031D83
:100A0600062D2D306D06031D112D2100A20A031996
:100A1600A30A2000EB0A0319EC0A1C2D00306E060F
:100A2600031D172D2B306D06031D1C2DEB0A031914
:100A3600EC0A6B0884006C0885000008ED00EE01E6
:100A46000030EE006D08EF00A82370080319472D4B
:100A560021002008F0002108F1000A30F4000030DF
:100A6600F5007E2330306D02F20000306E3BF3005D
:100A7600720870072100A0007308713DA1002000D4
:100A8600EB0A0319EC0A1C2D210022082304031982
:100A9600552D2008003CF0002108031C013EF10101
:0E0AA600F102592D2008F0002108F10008008F
:100AB40098252000D301D401D501D601E423823046
:100AC400FC00DD30FD00FD0B652DFC0B652D0000E9
:100AD40000001C247008D3007108D4000030D41B1B
:100AE400FF30D500D6005308D7005408D800B623E9
:060AF4006400612D7C2D61
:100B300080308400853085001830F0000130F100ED
:0C0B40002B3086000030870013240800D2
:020B00000034BF
:100B02000034003400340034003400340034003443
:040B12000034003477
:040B16000034003473
:020B1A000034A5
:100B1C000034003400340034003400340034003429
:040B2C00003400345D
:020000040001F9
:04000E00E938F31EBC
:00000001FF
